{
  "_format": "hh-sol-artifact-1",
  "contractName": "SwapUtils",
  "sourceName": "contracts/stabledex/SwapUtils.sol",
  "abi": [
    {
      "anonymous": false,
      "inputs": [
        {
          "indexed": true,
          "internalType": "address",
          "name": "provider",
          "type": "address"
        },
        {
          "indexed": false,
          "internalType": "uint256[]",
          "name": "tokenAmounts",
          "type": "uint256[]"
        },
        {
          "indexed": false,
          "internalType": "uint256[]",
          "name": "fees",
          "type": "uint256[]"
        },
        {
          "indexed": false,
          "internalType": "uint256",
          "name": "invariant",
          "type": "uint256"
        },
        {
          "indexed": false,
          "internalType": "uint256",
          "name": "lpTokenSupply",
          "type": "uint256"
        }
      ],
      "name": "AddLiquidity",
      "type": "event"
    },
    {
      "anonymous": false,
      "inputs": [
        {
          "indexed": false,
          "internalType": "uint256",
          "name": "newAdminFee",
          "type": "uint256"
        }
      ],
      "name": "NewAdminFee",
      "type": "event"
    },
    {
      "anonymous": false,
      "inputs": [
        {
          "indexed": false,
          "internalType": "uint256",
          "name": "newDepositFee",
          "type": "uint256"
        }
      ],
      "name": "NewDepositFee",
      "type": "event"
    },
    {
      "anonymous": false,
      "inputs": [
        {
          "indexed": false,
          "internalType": "uint256",
          "name": "newSwapFee",
          "type": "uint256"
        }
      ],
      "name": "NewSwapFee",
      "type": "event"
    },
    {
      "anonymous": false,
      "inputs": [
        {
          "indexed": false,
          "internalType": "uint256",
          "name": "newWithdrawFee",
          "type": "uint256"
        }
      ],
      "name": "NewWithdrawFee",
      "type": "event"
    },
    {
      "anonymous": false,
      "inputs": [
        {
          "indexed": false,
          "internalType": "uint256",
          "name": "oldA",
          "type": "uint256"
        },
        {
          "indexed": false,
          "internalType": "uint256",
          "name": "newA",
          "type": "uint256"
        },
        {
          "indexed": false,
          "internalType": "uint256",
          "name": "initialTime",
          "type": "uint256"
        },
        {
          "indexed": false,
          "internalType": "uint256",
          "name": "futureTime",
          "type": "uint256"
        }
      ],
      "name": "RampA",
      "type": "event"
    },
    {
      "anonymous": false,
      "inputs": [
        {
          "indexed": true,
          "internalType": "address",
          "name": "provider",
          "type": "address"
        },
        {
          "indexed": false,
          "internalType": "uint256[]",
          "name": "tokenAmounts",
          "type": "uint256[]"
        },
        {
          "indexed": false,
          "internalType": "uint256",
          "name": "lpTokenSupply",
          "type": "uint256"
        }
      ],
      "name": "RemoveLiquidity",
      "type": "event"
    },
    {
      "anonymous": false,
      "inputs": [
        {
          "indexed": true,
          "internalType": "address",
          "name": "provider",
          "type": "address"
        },
        {
          "indexed": false,
          "internalType": "uint256[]",
          "name": "tokenAmounts",
          "type": "uint256[]"
        },
        {
          "indexed": false,
          "internalType": "uint256[]",
          "name": "fees",
          "type": "uint256[]"
        },
        {
          "indexed": false,
          "internalType": "uint256",
          "name": "invariant",
          "type": "uint256"
        },
        {
          "indexed": false,
          "internalType": "uint256",
          "name": "lpTokenSupply",
          "type": "uint256"
        }
      ],
      "name": "RemoveLiquidityImbalance",
      "type": "event"
    },
    {
      "anonymous": false,
      "inputs": [
        {
          "indexed": true,
          "internalType": "address",
          "name": "provider",
          "type": "address"
        },
        {
          "indexed": false,
          "internalType": "uint256",
          "name": "lpTokenAmount",
          "type": "uint256"
        },
        {
          "indexed": false,
          "internalType": "uint256",
          "name": "lpTokenSupply",
          "type": "uint256"
        },
        {
          "indexed": false,
          "internalType": "uint256",
          "name": "boughtId",
          "type": "uint256"
        },
        {
          "indexed": false,
          "internalType": "uint256",
          "name": "tokensBought",
          "type": "uint256"
        }
      ],
      "name": "RemoveLiquidityOne",
      "type": "event"
    },
    {
      "anonymous": false,
      "inputs": [
        {
          "indexed": false,
          "internalType": "uint256",
          "name": "currentA",
          "type": "uint256"
        },
        {
          "indexed": false,
          "internalType": "uint256",
          "name": "time",
          "type": "uint256"
        }
      ],
      "name": "StopRampA",
      "type": "event"
    },
    {
      "anonymous": false,
      "inputs": [
        {
          "indexed": true,
          "internalType": "address",
          "name": "buyer",
          "type": "address"
        },
        {
          "indexed": false,
          "internalType": "uint256",
          "name": "tokensSold",
          "type": "uint256"
        },
        {
          "indexed": false,
          "internalType": "uint256",
          "name": "tokensBought",
          "type": "uint256"
        },
        {
          "indexed": false,
          "internalType": "uint128",
          "name": "soldId",
          "type": "uint128"
        },
        {
          "indexed": false,
          "internalType": "uint128",
          "name": "boughtId",
          "type": "uint128"
        }
      ],
      "name": "TokenSwap",
      "type": "event"
    },
    {
      "inputs": [],
      "name": "A_PRECISION",
      "outputs": [
        {
          "internalType": "uint256",
          "name": "",
          "type": "uint256"
        }
      ],
      "stateMutability": "view",
      "type": "function"
    },
    {
      "inputs": [],
      "name": "MAX_A",
      "outputs": [
        {
          "internalType": "uint256",
          "name": "",
          "type": "uint256"
        }
      ],
      "stateMutability": "view",
      "type": "function"
    },
    {
      "inputs": [],
      "name": "MAX_ADMIN_FEE",
      "outputs": [
        {
          "internalType": "uint256",
          "name": "",
          "type": "uint256"
        }
      ],
      "stateMutability": "view",
      "type": "function"
    },
    {
      "inputs": [],
      "name": "MAX_DEPOSIT_FEE",
      "outputs": [
        {
          "internalType": "uint256",
          "name": "",
          "type": "uint256"
        }
      ],
      "stateMutability": "view",
      "type": "function"
    },
    {
      "inputs": [],
      "name": "MAX_SWAP_FEE",
      "outputs": [
        {
          "internalType": "uint256",
          "name": "",
          "type": "uint256"
        }
      ],
      "stateMutability": "view",
      "type": "function"
    },
    {
      "inputs": [],
      "name": "MAX_WITHDRAW_FEE",
      "outputs": [
        {
          "internalType": "uint256",
          "name": "",
          "type": "uint256"
        }
      ],
      "stateMutability": "view",
      "type": "function"
    },
    {
      "inputs": [],
      "name": "POOL_PRECISION_DECIMALS",
      "outputs": [
        {
          "internalType": "uint8",
          "name": "",
          "type": "uint8"
        }
      ],
      "stateMutability": "view",
      "type": "function"
    }
  ],
  "bytecode": "0x614b9761003a600b82828239805160001a60731461002d57634e487b7160e01b600052600060045260246000fd5b30600052607381538281f3fe73000000000000000000000000000000000000000030146080604052600436106101ef5760003560e01c8063968e559411610119578063d4b0de2f116100ac578063e9252d461161007b578063e9252d46146104a7578063f14e211e146104c7578063f3de0362146104e7578063f967a81f146104f357600080fd5b8063d4b0de2f146103d9578063e4a9a0da14610432578063e7a4db811461045a578063e8c47a541461047a57600080fd5b8063c6d87dd5116100e8578063c6d87dd5146103d9578063c9b64dcb146103f7578063d011f9181461040a578063d2a394871461041257600080fd5b8063968e5594146103a6578063a5397b22146103b9578063ab3d8544146103d9578063b0a14cfc146103e457600080fd5b80634b23603c1161019157806371906c2c1161016057806371906c2c1461033357806373fd6b3e146103465780637d048160146103735780638ab7697e1461038657600080fd5b80634b23603c146102cd57806358fdd79b146102e05780635e58579c14610300578063704672761461031357600080fd5b806340370edf116101cd57806340370edf1461024d57806341b91c261461026d5780634386c7ce1461028d578063467e186c146102ad57600080fd5b80630296ab50146101f457806324c5c751146102135780633969841514610235575b600080fd5b6101fc601281565b60405160ff90911681526020015b60405180910390f35b81801561021f57600080fd5b5061023361022e36600461447d565b610506565b005b61023f620f424081565b60405190815260200161020a565b81801561025957600080fd5b5061023f610268366004614598565b61061e565b81801561027957600080fd5b5061023f610288366004614598565b610fb7565b81801561029957600080fd5b506102336102a836600461447d565b61174e565b8180156102b957600080fd5b506102336102c8366004614671565b611834565b61023f6102db366004614751565b6118c7565b8180156102ec57600080fd5b506102336102fb3660046146e6565b6118df565b61023f61030e3660046144a9565b611b3e565b81801561031f57600080fd5b5061023361032e366004614671565b611dfb565b61023f610341366004614464565b611e87565b81801561035257600080fd5b50610366610361366004614693565b611fee565b60405161020a9190614868565b61023f610381366004614671565b612397565b81801561039257600080fd5b506102336103a1366004614671565b61242e565b61023f6103b436600461447d565b6124b9565b8180156103c557600080fd5b5061023f6103d4366004614789565b612556565b61023f6305f5e10081565b61023f6103f2366004614464565b6128cf565b61023f610405366004614464565b6128da565b61023f606481565b81801561041e57600080fd5b5061023361042d366004614671565b6128e5565b610445610440366004614550565b612970565b6040805192835260208301919091520161020a565b81801561046657600080fd5b5061023f610475366004614712565b6129ff565b61023f61048836600461447d565b6001600160a01b03166000908152600d91909101602052604090205490565b8180156104b357600080fd5b506102336104c236600461451b565b612d59565b8180156104d357600080fd5b506102336104e2366004614464565b612d64565b61023f6402540be40081565b61036661050136600461451b565b612e15565b60005b600a83015481101561061957600083600a01828154811061052c5761052c614af2565b6000918252602082200154600c860180546001600160a01b0390921693506105e8918590811061055e5761055e614af2565b6000918252602090912001546040516370a0823160e01b81523060048201526001600160a01b038516906370a08231906024015b60206040518083038186803b1580156105aa57600080fd5b505afa1580156105be573d6000803e3d6000fd5b505050506040513d601f19601f820116820180604052508101906105e291906147db565b90612e22565b90508015610604576106046001600160a01b0383168583612e2e565b5050808061061190614ac1565b915050610509565b505050565b600a83015482516000911461067a5760405162461bcd60e51b815260206004820181905260248201527f416d6f756e7473206d757374206d6174636820706f6f6c656420746f6b656e7360448201526064015b60405180910390fd5b600a84015460009067ffffffffffffffff81111561069a5761069a614b08565b6040519080825280602002602001820160405280156106c3578160200160208202803683370190505b50905060008560090160009054906101000a90046001600160a01b03166001600160a01b03166318160ddd6040518163ffffffff1660e01b815260040160206040518083038186803b15801561071857600080fd5b505afa15801561072c573d6000803e3d6000fd5b505050506040513d601f19601f8201168201806040525081019061075091906147db565b905060006040518060800160405280600081526020016000815260200160008152602001600081525090508160001461078f5761078c87612ed7565b81525b600087600c018054806020026020016040519081016040528092919081815260200182805480156107df57602002820191906000526020600020905b8154815260200190600101908083116107cb575b5050505050905060005b600a890154811015610a63578315158061081c5750600088828151811061081257610812614af2565b6020026020010151115b6108685760405162461bcd60e51b815260206004820152601e60248201527f4d75737420737570706c7920616c6c20746f6b656e7320696e20706f6f6c00006044820152606401610671565b87818151811061087a5761087a614af2565b60200260200101516000146109e957600089600a0182815481106108a0576108a0614af2565b6000918252602090912001546040516370a0823160e01b81523060048201526001600160a01b03909116906370a082319060240160206040518083038186803b1580156108ec57600080fd5b505afa158015610900573d6000803e3d6000fd5b505050506040513d601f19601f8201168201806040525081019061092491906147db565b905061097733308b858151811061093d5761093d614af2565b60200260200101518d600a01868154811061095a5761095a614af2565b6000918252602090912001546001600160a01b0316929190612eee565b6109c9818b600a01848154811061099057610990614af2565b6000918252602090912001546040516370a0823160e01b81523060048201526001600160a01b03909116906370a0823190602401610592565b8983815181106109db576109db614af2565b602002602001018181525050505b610a348882815181106109fe576109fe614af2565b60200260200101518a600c018381548110610a1b57610a1b614af2565b9060005260206000200154612f4590919063ffffffff16565b828281518110610a4657610a46614af2565b602090810291909101015280610a5b81614ac1565b9150506107e9565b50610a6d88612f51565b6060830152610a89610a7f8983612fdc565b836060015161303a565b60208301819052825110610adf5760405162461bcd60e51b815260206004820152601160248201527f442073686f756c6420696e6372656173650000000000000000000000000000006044820152606401610671565b602082015160408301528215610d3a576000610afa8961324c565b905060005b600a8a0154811015610d17576000610b518560000151610b4b8d600c018581548110610b2d57610b2d614af2565b9060005260206000200154886020015161327990919063ffffffff16565b90613285565b9050610c136402540be400610b4b8373__$765e0731fef966b5e746fceb51a527384d$__63a95cb7f79091898881518110610b8e57610b8e614af2565b60200260200101516040518363ffffffff1660e01b8152600401610bbc929190918252602082015260400190565b60206040518083038186803b158015610bd457600080fd5b505af4158015610be8573d6000803e3d6000fd5b505050506040513d601f19601f82011682018060405250810190610c0c91906147db565b8690613279565b878381518110610c2557610c25614af2565b602002602001018181525050610c95610c6d6402540be400610b4b8e600501548b8781518110610c5757610c57614af2565b602002602001015161327990919063ffffffff16565b858481518110610c7f57610c7f614af2565b6020026020010151612e2290919063ffffffff16565b8b600c018381548110610caa57610caa614af2565b9060005260206000200181905550610ce7878381518110610ccd57610ccd614af2565b6020026020010151858481518110610c7f57610c7f614af2565b848381518110610cf957610cf9614af2565b60209081029190910101525080610d0f81614ac1565b915050610aff565b50610d2f610d258a84612fdc565b846060015161303a565b604084015250610d51565b8051610d4f90600c8a0190602084019061437f565b505b6000808085610d665784602001519250610d8b565b84516040860151610d889190610b4b908990610d829084612e22565b90613279565b92505b88831015610ddb5760405162461bcd60e51b815260206004820152601b60248201527f436f756c646e2774206d696e74206d696e2072657175657374656400000000006044820152606401610671565b60068b0154610e4f5760098b01546040516340c10f1960e01b8152336004820152602481018590526001600160a01b03909116906340c10f1990604401600060405180830381600087803b158015610e3257600080fd5b505af1158015610e46573d6000803e3d6000fd5b50505050610f50565b610e6f6402540be400610b4b8d600601548661327990919063ffffffff16565b9150610e7b8383612e22565b60098c015460088d01546040516340c10f1960e01b81526001600160a01b0391821660048201526024810186905292935016906340c10f1990604401600060405180830381600087803b158015610ed157600080fd5b505af1158015610ee5573d6000803e3d6000fd5b5050505060098b01546040516340c10f1960e01b8152336004820152602481018390526001600160a01b03909116906340c10f1990604401600060405180830381600087803b158015610f3757600080fd5b505af1158015610f4b573d6000803e3d6000fd5b505050505b336001600160a01b03167f189c623b666b1b45b83d7178f39b8c087cb09774317ca2f53c2d3c3726f222a28b898860200151878b610f8e919061493a565b604051610f9e94939291906148ac565b60405180910390a25090955050505050505b9392505050565b600a83015482516000911461100e5760405162461bcd60e51b815260206004820181905260248201527f416d6f756e74732073686f756c64206d6174636820706f6f6c20746f6b656e736044820152606401610671565b60098401546040516370a0823160e01b81523360048201526001600160a01b03909116906370a082319060240160206040518083038186803b15801561105357600080fd5b505afa158015611067573d6000803e3d6000fd5b505050506040513d601f19601f8201168201806040525081019061108b91906147db565b821115801561109957508115155b6110e55760405162461bcd60e51b815260206004820152600d60248201527f3e4c502e62616c616e63654f66000000000000000000000000000000000000006044820152606401610671565b600060405180608001604052806000815260200160008152602001600081526020016000815250905060008560090160009054906101000a90046001600160a01b03166001600160a01b03166318160ddd6040518163ffffffff1660e01b815260040160206040518083038186803b15801561116057600080fd5b505afa158015611174573d6000803e3d6000fd5b505050506040513d601f19601f8201168201806040525081019061119891906147db565b905060006111a58761324c565b9050600087600c018054806020026020016040519081016040528092919081815260200182805480156111f757602002820191906000526020600020905b8154815260200190600101908083116111e3575b5050505050905061120788612f51565b606085015261122261121889613291565b856060015161303a565b845260005b600a8901548110156112c15761129288828151811061124857611248614af2565b6020026020010151604051806060016040528060238152602001614b3f6023913984848151811061127b5761127b614af2565b602002602001015161333f9092919063ffffffff16565b8282815181106112a4576112a4614af2565b6020908102919091010152806112b981614ac1565b915050611227565b506112cf6112188983612fdc565b6020850152600a88015460009067ffffffffffffffff8111156112f4576112f4614b08565b60405190808252806020026020018201604052801561131d578160200160208202803683370190505b50905060005b600a8a015481101561151057600061136f8760000151610b4b8d600c01858154811061135157611351614af2565b90600052602060002001548a6020015161327990919063ffffffff16565b905060008173__$765e0731fef966b5e746fceb51a527384d$__63a95cb7f790918786815181106113a2576113a2614af2565b60200260200101516040518363ffffffff1660e01b81526004016113d0929190918252602082015260400190565b60206040518083038186803b1580156113e857600080fd5b505af41580156113fc573d6000803e3d6000fd5b505050506040513d601f19601f8201168201806040525081019061142091906147db565b90506114356402540be400610b4b8884613279565b84848151811061144757611447614af2565b60200260200101818152505061148b6114796402540be400610b4b8f60050154888881518110610c5757610c57614af2565b868581518110610c7f57610c7f614af2565b8c600c0184815481106114a0576114a0614af2565b90600052602060002001819055506114dd8484815181106114c3576114c3614af2565b6020026020010151868581518110610c7f57610c7f614af2565b8584815181106114ef576114ef614af2565b6020026020010181815250505050808061150890614ac1565b915050611323565b5061152861151e8a84612fdc565b866060015161303a565b60408601819052855160009161154a9190610b4b908890610d82908490612e22565b9050806115995760405162461bcd60e51b815260206004820152601b60248201527f4275726e7420616d6f756e742063616e6e6f74206265207a65726f00000000006044820152606401610671565b6115c96115b56115a98c336124b9565b6402540be40090612e22565b610b4b6402540be400610d82856001612f45565b90508781111561161b5760405162461bcd60e51b815260206004820152601b60248201527f746f6b656e416d6f756e74203e206d61784275726e416d6f756e7400000000006044820152606401610671565b60098a015460405163079cc67960e41b8152336004820152602481018390526001600160a01b03909116906379cc679090604401600060405180830381600087803b15801561166957600080fd5b505af115801561167d573d6000803e3d6000fd5b5050505060005b600a8b01548110156116f1576116df338b83815181106116a6576116a6614af2565b60200260200101518d600a0184815481106116c3576116c3614af2565b6000918252602090912001546001600160a01b03169190612e2e565b806116e981614ac1565b915050611684565b50602086015133907f3631c28b1f9dd213e0319fb167b554d76b6c283a41143eb400a0d1adb1af1755908b9085906117298a87612e22565b60405161173994939291906148ac565b60405180910390a29998505050505050505050565b60088201546001600160a01b031633146117aa5760405162461bcd60e51b815260206004820152600960248201527f6465763a207775743f00000000000000000000000000000000000000000000006044820152606401610671565b336117f75760405162461bcd60e51b815260206004820152600f60248201527f696e76616c6964206164647265737300000000000000000000000000000000006044820152606401610671565b60089190910180547fffffffffffffffffffffffff0000000000000000000000000000000000000000166001600160a01b03909216919091179055565b6305f5e1008111156118885760405162461bcd60e51b815260206004820152600f60248201527f46656520697320746f6f206869676800000000000000000000000000000000006044820152606401610671565b600482018190556040518181527fd88ea5155021c6f8dafa1a741e173f595cdf77ce7c17d43342131d7f06afdfe5906020015b60405180910390a15050565b60006118d58585858561336b565b5095945050505050565b60028301546118f19062015180612f45565b4210156119405760405162461bcd60e51b815260206004820152601f60248201527f57616974203120646179206265666f7265207374617274696e672072616d70006044820152606401610671565b61194d4262127500612f45565b81101561199c5760405162461bcd60e51b815260206004820152601660248201527f496e73756666696369656e742072616d702074696d65000000000000000000006044820152606401610671565b6000821180156119ae5750620f424082105b6119fa5760405162461bcd60e51b815260206004820181905260248201527f667574757265415f206d757374206265203e203020616e64203c204d41585f416044820152606401610671565b6000611a0584612f51565b90506000611a14846064613279565b905081811015611a7d5781611a2a826002613279565b1015611a785760405162461bcd60e51b815260206004820152601560248201527f667574757265415f20697320746f6f20736d616c6c00000000000000000000006044820152606401610671565b611ad7565b611a88826002613279565b811115611ad75760405162461bcd60e51b815260206004820152601560248201527f667574757265415f20697320746f6f206c6172676500000000000000000000006044820152606401610671565b8185556001850181905542600286018190556003860184905560408051848152602081018490528082019290925260608201859052517fa2b71ec6df949300b59aab36b55e189697b750119dd349fcfa8c0f779e83c2549181900360800190a15050505050565b600a85015460009081611b5088612f51565b90506000611bb9611bb38a8b600c01805480602002602001604051908101604052809291908181526020018280548015611ba957602002820191906000526020600020905b815481526020019060010190808311611b95575b5050505050612fdc565b8361303a565b9050600089600c01805480602002602001604051908101604052809291908181526020018280548015611c0b57602002820191906000526020600020905b815481526020019060010190808311611bf7575b5050505050905060005b84811015611d02578615611c8a57611c67898983818110611c3857611c38614af2565b90506020020135838381518110611c5157611c51614af2565b6020026020010151612f4590919063ffffffff16565b828281518110611c7957611c79614af2565b602002602001018181525050611cf0565b611cd1898983818110611c9f57611c9f614af2565b90506020020135604051806060016040528060238152602001614b3f6023913984848151811061127b5761127b614af2565b828281518110611ce357611ce3614af2565b6020026020010181815250505b80611cfa81614ac1565b915050611c15565b506000611d18611d128c84612fdc565b8561303a565b905060008b60090160009054906101000a90046001600160a01b03166001600160a01b03166318160ddd6040518163ffffffff1660e01b815260040160206040518083038186803b158015611d6c57600080fd5b505afa158015611d80573d6000803e3d6000fd5b505050506040513d601f19601f82011682018060405250810190611da491906147db565b90508715611dcb57611dbe84610b4b83610d828684612e22565b9650505050505050611df2565b611dbe611ddb6115a98e8e6124b9565b610b4b6402540be400610d8288838783838b612e22565b95945050505050565b6402540be400811115611e505760405162461bcd60e51b815260206004820152600f60248201527f46656520697320746f6f206869676800000000000000000000000000000000006044820152606401610671565b600582018190556040518181527fab599d640ca80cde2b09b128a4154a8dfe608cb80f4c9399c8b954b01fd35f38906020016118bb565b600080611ea4611e9684613291565b611e9f85612f51565b61303a565b905060008360090160009054906101000a90046001600160a01b03166001600160a01b03166318160ddd6040518163ffffffff1660e01b815260040160206040518083038186803b158015611ef857600080fd5b505afa158015611f0c573d6000803e3d6000fd5b505050506040513d601f19601f82011682018060405250810190611f3091906147db565b90508015611fe457611fdc81610b4b8660090160009054906101000a90046001600160a01b03166001600160a01b031663313ce5676040518163ffffffff1660e01b815260040160206040518083038186803b158015611f8f57600080fd5b505afa158015611fa3573d6000803e3d6000fd5b505050506040513d601f19601f82011682018060405250810190611fc791906147f4565b611fd59060ff16600a6149b7565b8590613279565b949350505050565b5060009392505050565b60098401546040516370a0823160e01b81523360048201526060916001600160a01b0316906370a082319060240160206040518083038186803b15801561203457600080fd5b505afa158015612048573d6000803e3d6000fd5b505050506040513d601f19601f8201168201806040525081019061206c91906147db565b8411156120bb5760405162461bcd60e51b815260206004820152600d60248201527f3e4c502e62616c616e63654f66000000000000000000000000000000000000006044820152606401610671565b600a850154821461210e5760405162461bcd60e51b815260206004820181905260248201527f6d696e416d6f756e7473206d757374206d6174636820706f6f6c546f6b656e736044820152606401610671565b600061211b8633876134c8565b905060005b815181101561225d5784848281811061213b5761213b614af2565b9050602002013582828151811061215457612154614af2565b602002602001015110156121aa5760405162461bcd60e51b815260206004820152601a60248201527f616d6f756e74735b695d203c206d696e416d6f756e74735b695d0000000000006044820152606401610671565b6121f58282815181106121bf576121bf614af2565b602002602001015188600c0183815481106121dc576121dc614af2565b9060005260206000200154612e2290919063ffffffff16565b87600c01828154811061220a5761220a614af2565b906000526020600020018190555061224b3383838151811061222e5761222e614af2565b602002602001015189600a0184815481106116c3576116c3614af2565b8061225581614ac1565b915050612120565b50600986015460405163079cc67960e41b8152336004820152602481018790526001600160a01b03909116906379cc679090604401600060405180830381600087803b1580156122ac57600080fd5b505af11580156122c0573d6000803e3d6000fd5b50505050336001600160a01b03167f88d38ed598fdd809c2bf01ee49cd24b7fdabf379a83d29567952b60324d58cef828860090160009054906101000a90046001600160a01b03166001600160a01b03166318160ddd6040518163ffffffff1660e01b815260040160206040518083038186803b15801561234057600080fd5b505afa158015612354573d6000803e3d6000fd5b505050506040513d601f19601f8201168201806040525081019061237891906147db565b6040516123869291906148e5565b60405180910390a295945050505050565b600a82015460009082106123ed5760405162461bcd60e51b815260206004820152601860248201527f546f6b656e20696e646578206f7574206f662072616e676500000000000000006044820152606401610671565b61242583600c01838154811061240557612405614af2565b906000526020600020015484600a01848154811061099057610990614af2565b90505b92915050565b6305f5e1008111156124825760405162461bcd60e51b815260206004820152600f60248201527f46656520697320746f6f206869676800000000000000000000000000000000006044820152606401610671565b600782018190556040518181527fd5fe46099fa396290a7f57e36c3c3c8774e2562c18ed5d1dcc0fa75071e03f1d906020016118bb565b6001600160a01b0381166000908152600d8301602052604081205481906124e3906224ea00612f45565b905042811115611fe45760006124f98242612e22565b905061254d6402540be400610b4b6224ea00610b4b85610d828b600e0160008c6001600160a01b03166001600160a01b03168152602001908152602001600020548c6007015461327990919063ffffffff16565b92505050612428565b600085600a018560ff168154811061257057612570614af2565b6000918252602090912001546040516370a0823160e01b81523360048201526001600160a01b03909116906370a082319060240160206040518083038186803b1580156125bc57600080fd5b505afa1580156125d0573d6000803e3d6000fd5b505050506040513d601f19601f820116820180604052508101906125f491906147db565b8311156126435760405162461bcd60e51b815260206004820152601d60248201527f43616e6e6f742073776170206d6f7265207468616e20796f75206f776e0000006044820152606401610671565b600086600a018660ff168154811061265d5761265d614af2565b6000918252602090912001546040516370a0823160e01b81523060048201526001600160a01b03909116906370a082319060240160206040518083038186803b1580156126a957600080fd5b505afa1580156126bd573d6000803e3d6000fd5b505050506040513d601f19601f820116820180604052508101906126e191906147db565b90506127013330868a600a018a60ff168154811061095a5761095a614af2565b600061271f8289600a018960ff168154811061099057610990614af2565b90506000806127308a8a8a8661336b565b91509150858210156127845760405162461bcd60e51b815260206004820181905260248201527f53776170206469646e277420726573756c7420696e206d696e20746f6b656e736044820152606401610671565b60006127cc8b600b018a60ff16815481106127a1576127a1614af2565b9060005260206000200154610b4b6402540be400610b4b8f600501548761327990919063ffffffff16565b90506127ea848c600c018c60ff1681548110610a1b57610a1b614af2565b8b600c018b60ff168154811061280257612802614af2565b9060005260206000200181905550612830816105e2858e600c018d60ff16815481106121dc576121dc614af2565b8b600c018a60ff168154811061284857612848614af2565b906000526020600020018190555061287333848d600a018c60ff16815481106116c3576116c3614af2565b604080518581526020810185905260ff8c8116828401528b166060820152905133917fc6c1e0630dbe9130cc068028486c0d118ddcea348550819defd5cb8c257f8a38919081900360800190a250909998505050505050505050565b600061242882613696565b600061242882612f51565b6305f5e1008111156129395760405162461bcd60e51b815260206004820152600f60248201527f46656520697320746f6f206869676800000000000000000000000000000000006044820152606401610671565b600682018190556040518181527f5237b692334926d9ab50f9d1ac513fe7e153f0cd81dd7c55a09d281d2985d808906020016118bb565b6000806000806129818886886136a6565b809250819350505060006129d6836105e28b600b018960ff16815481106129aa576129aa614af2565b9060005260206000200154610b4b866129c28f613291565b8c60ff1681518110610c7f57610c7f614af2565b90506129f16402540be400610b4b610c0c6115a98d8d6124b9565b999098509650505050505050565b6000808560090160009054906101000a90046001600160a01b03166001600160a01b03166318160ddd6040518163ffffffff1660e01b815260040160206040518083038186803b158015612a5257600080fd5b505afa158015612a66573d6000803e3d6000fd5b505050506040513d601f19601f82011682018060405250810190612a8a91906147db565b600a87015460098801546040516370a0823160e01b815233600482015292935090916001600160a01b03909116906370a082319060240160206040518083038186803b158015612ad957600080fd5b505afa158015612aed573d6000803e3d6000fd5b505050506040513d601f19601f82011682018060405250810190612b1191906147db565b861115612b605760405162461bcd60e51b815260206004820152600d60248201527f3e4c502e62616c616e63654f66000000000000000000000000000000000000006044820152606401610671565b808560ff1610612bb25760405162461bcd60e51b815260206004820152600f60248201527f546f6b656e206e6f7420666f756e6400000000000000000000000000000000006044820152606401610671565b600080612bc189338a8a612970565b9250905085811015612c155760405162461bcd60e51b815260206004820152600e60248201527f6479203c206d696e416d6f756e740000000000000000000000000000000000006044820152606401610671565b612c5a612c42612c3b6402540be400610b4b8d600501548761327990919063ffffffff16565b8390612f45565b8a600c018960ff16815481106121dc576121dc614af2565b89600c018860ff1681548110612c7257612c72614af2565b600091825260209091200155600989015460405163079cc67960e41b8152336004820152602481018a90526001600160a01b03909116906379cc679090604401600060405180830381600087803b158015612ccc57600080fd5b505af1158015612ce0573d6000803e3d6000fd5b50505050612d0133828b600a018a60ff16815481106116c3576116c3614af2565b604080518981526020810186905260ff89168183015260608101839052905133917f43fb02998f4e03da2e0e6fff53fdbf0c40a9f45f145dc377fc30615d7d7a8a64919081900360800190a298975050505050505050565b610619838383613a35565b42816003015411612db75760405162461bcd60e51b815260206004820152601760248201527f52616d7020697320616c72656164792073746f707065640000000000000000006044820152606401610671565b6000612dc282612f51565b808355600183018190554260028401819055600384018190556040519192507f46e22fb3709ad289f62ce63d469248536dbc78d82b84a3d7e74ad606dc201938916118bb91848252602082015260400190565b6060611fdc8484846134c8565b60006124258284614a7e565b6040516001600160a01b0383166024820152604481018290526106199084907fa9059cbb00000000000000000000000000000000000000000000000000000000906064015b60408051601f198184030181529190526020810180517bffffffffffffffffffffffffffffffffffffffffffffffffffffffff167fffffffff0000000000000000000000000000000000000000000000000000000090931692909217909152613b94565b6000612428612ee583613291565b611e9f84612f51565b6040516001600160a01b0380851660248301528316604482015260648101829052612f3f9085907f23b872dd0000000000000000000000000000000000000000000000000000000090608401612e73565b50505050565b6000612425828461493a565b600381015460018201546000919042821115610fb0576002840154845480831115612fae57612fa4612f9d612f868685612e22565b610b4b612f934287612e22565b610d828887612e22565b8290612f45565b9695505050505050565b612fa4612fd5612fbe8685612e22565b610b4b612fcb4287612e22565b610d828689612e22565b8290612e22565b60606124258284600b0180548060200260200160405190810160405280929190818152602001828054801561303057602002820191906000526020600020905b81548152602001906001019080831161301c575b5050505050613c79565b815160009081805b8281101561308a5761307686828151811061305f5761305f614af2565b602002602001015183612f4590919063ffffffff16565b91508061308281614ac1565b915050613042565b508061309b57600092505050612428565b600081816130a98786613279565b905060005b610100811015613203578260005b878110156130fb576130e76130dd898d8481518110610c5757610c57614af2565b610b4b8488613279565b9150806130f381614ac1565b9150506130bc565b50929350839261314f61312f61311683610d828b6001612f45565b6131296064610b4b89610d828a84612e22565b90612f45565b610b4b86610d82613140868d613279565b6131296064610b4b8b8f613279565b6040516313a1ec7560e01b8152600481018290526024810187905290945073__$765e0731fef966b5e746fceb51a527384d$__906313a1ec759060440160206040518083038186803b1580156131a457600080fd5b505af41580156131b8573d6000803e3d6000fd5b505050506040513d601f19601f820116820180604052508101906131dc9190614447565b156131f05783975050505050505050612428565b50806131fb81614ac1565b9150506130ae565b5060405162461bcd60e51b815260206004820152601360248201527f4420646f6573206e6f7420636f6e7665726765000000000000000000000000006044820152606401610671565b600a8101546000906124289061326a90600490610d82906001612e22565b600a8401546004850154610b4b915b60006124258284614a5f565b60006124258284614952565b606061242882600c018054806020026020016040519081016040528092919081815260200182805480156132e457602002820191906000526020600020905b8154815260200190600101908083116132d0575b505050505083600b01805480602002602001604051908101604052809291908181526020018280548015613030576020028201919060005260206000209081548152602001906001019080831161301c575050505050613c79565b600081848411156133635760405162461bcd60e51b81526004016106719190614907565b505050900390565b600080600061337987613291565b905080518660ff16108015613391575080518560ff16105b6133dd5760405162461bcd60e51b815260206004820152601860248201527f546f6b656e20696e646578206f7574206f662072616e676500000000000000006044820152606401610671565b6000613434828860ff16815181106133f7576133f7614af2565b60200260200101516131298a600b018a60ff168154811061341a5761341a614af2565b90600052602060002001548861327990919063ffffffff16565b905060006134458989898587613d88565b905061346560016105e283868b60ff1681518110610c7f57610c7f614af2565b94506134876402540be400610b4b8b600401548861327990919063ffffffff16565b93506134ba89600b018860ff16815481106134a4576134a4614af2565b600091825260209091200154610b4b8787612e22565b945050505094509492505050565b606060008460090160009054906101000a90046001600160a01b03166001600160a01b03166318160ddd6040518163ffffffff1660e01b815260040160206040518083038186803b15801561351c57600080fd5b505afa158015613530573d6000803e3d6000fd5b505050506040513d601f19601f8201168201806040525081019061355491906147db565b9050808311156135a65760405162461bcd60e51b815260206004820152601a60248201527f43616e6e6f742065786365656420746f74616c20737570706c790000000000006044820152606401610671565b60006135c86402540be400610b4b6135c16115a98a8a6124b9565b8790613279565b600a87015490915060009067ffffffffffffffff8111156135eb576135eb614b08565b604051908082528060200260200182016040528015613614578160200160208202803683370190505b50905060005b600a88015481101561368b5761365c84610b4b858b600c01858154811061364357613643614af2565b906000526020600020015461327990919063ffffffff16565b82828151811061366e5761366e614af2565b60209081029190910101528061368381614ac1565b91505061361a565b509695505050505050565b60006124286064610b4b84612f51565b600a830154600090819060ff8516106137015760405162461bcd60e51b815260206004820152601960248201527f546f6b656e20696e646578206f7574206f662072616e67652e000000000000006044820152606401610671565b600061370c86613291565b905060006040518060a00160405280600081526020016000815260200160008152602001600081526020016000815250905061374787612f51565b6080820181905261375990839061303a565b81526009870154604080517f18160ddd000000000000000000000000000000000000000000000000000000008152905161381092613808926001600160a01b03909116916318160ddd91600480820192602092909190829003018186803b1580156137c357600080fd5b505afa1580156137d7573d6000803e3d6000fd5b505050506040513d601f19601f820116820180604052508101906137fb91906147db565b8351610b4b908990613279565b825190612e22565b60208201528151829060ff881690811061382c5761382c614af2565b60200260200101518511156138835760405162461bcd60e51b815260206004820152601b60248201527f5769746864726177206578636565647320617661696c61626c652e00000000006044820152606401610671565b61389781608001518784846020015161406b565b6040820152815160009067ffffffffffffffff8111156138b9576138b9614b08565b6040519080825280602002602001820160405280156138e2578160200160208202803683370190505b5090506138ee8861324c565b606083015260005b600a8901548110156139bb57600084828151811061391657613916614af2565b6020026020010151905061398b612fd56402540be400610b4b87606001518d60ff16871461396457885160208a015161395f9161395891610b4b908a90613279565b8790612e22565b610d82565b610d8289604001516105e28b60000151610b4b8d602001518b61327990919063ffffffff16565b83838151811061399d5761399d614af2565b602090810291909101015250806139b381614ac1565b9150506138f6565b5060006139ea6139d584608001518a85876020015161406b565b838a60ff1681518110610c7f57610c7f614af2565b9050613a1e89600b018960ff1681548110613a0757613a07614af2565b600091825260209091200154610b4b836001612e22565b604090930151929550919350505050935093915050565b6001600160a01b038216613a4857505050565b6007830154613a78576001600160a01b0382166000908152600e8401602052604090206402540be4009055613b74565b6000613a8484846124b9565b60098501546040516370a0823160e01b81526001600160a01b038681166004830152929350600092909116906370a082319060240160206040518083038186803b158015613ad157600080fd5b505afa158015613ae5573d6000803e3d6000fd5b505050506040513d601f19601f82011682018060405250810190613b0991906147db565b9050613b56613b298660070154610d828487612f4590919063ffffffff16565b610b4b6402540be400610d82613b4c8a600701548961327990919063ffffffff16565b6131298789613279565b6001600160a01b0385166000908152600e8701602052604090205550505b506001600160a01b03166000908152600d90910160205260409020429055565b6000613be9826040518060400160405280602081526020017f5361666545524332303a206c6f772d6c6576656c2063616c6c206661696c6564815250856001600160a01b03166142749092919063ffffffff16565b8051909150156106195780806020019051810190613c079190614447565b6106195760405162461bcd60e51b815260206004820152602a60248201527f5361666545524332303a204552433230206f7065726174696f6e20646964206e60448201527f6f742073756363656564000000000000000000000000000000000000000000006064820152608401610671565b81518151606091908114613ccf5760405162461bcd60e51b815260206004820152601f60248201527f42616c616e636573206d757374206d61746368206d756c7469706c69657273006044820152606401610671565b60008167ffffffffffffffff811115613cea57613cea614b08565b604051908082528060200260200182016040528015613d13578160200160208202803683370190505b50905060005b82811015613d7f57613d50858281518110613d3657613d36614af2565b6020026020010151878381518110610c5757610c57614af2565b828281518110613d6257613d62614af2565b602090810291909101015280613d7781614ac1565b915050613d19565b50949350505050565b600a85015460009060ff8681169086161415613de65760405162461bcd60e51b815260206004820152601d60248201527f43616e277420636f6d7061726520746f6b656e20746f20697473656c660000006044820152606401610671565b808660ff16108015613dfa5750808560ff16105b613e465760405162461bcd60e51b815260206004820152601660248201527f546f6b656e73206d75737420626520696e20706f6f6c000000000000000000006044820152606401610671565b6000613e5188612f51565b90506000613e5f858361303a565b905080600080613e6f8686613279565b90506000805b87811015613ef8578c60ff16811415613e90578a9150613ec0565b8b60ff168114613ebb57898181518110613eac57613eac614af2565b60200260200101519150613ec0565b613ee6565b613eca8483612f45565b9350613ee3613ed9838a613279565b610b4b8789613279565b94505b80613ef081614ac1565b915050613e75565b50613f15613f068389613279565b610b4b6064610d82888a613279565b93506000613f32613f2b84610b4b896064613279565b8590612f45565b9050600086815b610100811015614022579091508190613f6c613f5e8a6105e287613129876002613279565b610b4b8a6131298680613279565b6040516313a1ec7560e01b8152600481018290526024810185905290925073__$765e0731fef966b5e746fceb51a527384d$__906313a1ec759060440160206040518083038186803b158015613fc157600080fd5b505af4158015613fd5573d6000803e3d6000fd5b505050506040513d601f19601f82011682018060405250810190613ff99190614447565b1561401057509950611df298505050505050505050565b8061401a81614ac1565b915050613f39565b5060405162461bcd60e51b815260206004820152601e60248201527f417070726f78696d6174696f6e20646964206e6f7420636f6e766572676500006044820152606401610671565b815160009060ff851681116140c25760405162461bcd60e51b815260206004820152600f60248201527f546f6b656e206e6f7420666f756e6400000000000000000000000000000000006044820152606401610671565b826000806140d08985613279565b905060005b8481101561414d578860ff16811461413b576141138882815181106140fc576140fc614af2565b602002602001015184612f4590919063ffffffff16565b925061413861412e868a8481518110610c5757610c57614af2565b610b4b868a613279565b93505b8061414581614ac1565b9150506140d5565b5061416a61415b8286613279565b610b4b6064610d82878b613279565b9250600061418761418083610b4b8a6064613279565b8490612f45565b9050600087815b6101008110156140225790915081906141c16141b38b6105e287613129876002613279565b610b4b896131298680613279565b6040516313a1ec7560e01b8152600481018290526024810185905290925073__$765e0731fef966b5e746fceb51a527384d$__906313a1ec759060440160206040518083038186803b15801561421657600080fd5b505af415801561422a573d6000803e3d6000fd5b505050506040513d601f19601f8201168201806040525081019061424e9190614447565b1561426257509650611fdc95505050505050565b8061426c81614ac1565b91505061418e565b6060611fdc848460008585843b6142cd5760405162461bcd60e51b815260206004820152601d60248201527f416464726573733a2063616c6c20746f206e6f6e2d636f6e74726163740000006044820152606401610671565b600080866001600160a01b031685876040516142e9919061484c565b60006040518083038185875af1925050503d8060008114614326576040519150601f19603f3d011682016040523d82523d6000602084013e61432b565b606091505b509150915061433b828286614346565b979650505050505050565b60608315614355575081610fb0565b8251156143655782518084602001fd5b8160405162461bcd60e51b81526004016106719190614907565b8280548282559060005260206000209081019282156143ba579160200282015b828111156143ba57825182559160200191906001019061439f565b506143c69291506143ca565b5090565b5b808211156143c657600081556001016143cb565b80356001600160a01b03811681146143f657600080fd5b919050565b60008083601f84011261440d57600080fd5b50813567ffffffffffffffff81111561442557600080fd5b6020830191508360208260051b850101111561444057600080fd5b9250929050565b60006020828403121561445957600080fd5b8151610fb081614b1e565b60006020828403121561447657600080fd5b5035919050565b6000806040838503121561449057600080fd5b823591506144a0602084016143df565b90509250929050565b6000806000806000608086880312156144c157600080fd5b853594506144d1602087016143df565b9350604086013567ffffffffffffffff8111156144ed57600080fd5b6144f9888289016143fb565b909450925050606086013561450d81614b1e565b809150509295509295909350565b60008060006060848603121561453057600080fd5b83359250614540602085016143df565b9150604084013590509250925092565b6000806000806080858703121561456657600080fd5b84359350614576602086016143df565b925060408501359150606085013561458d81614b2f565b939692955090935050565b6000806000606084860312156145ad57600080fd5b8335925060208085013567ffffffffffffffff808211156145cd57600080fd5b818701915087601f8301126145e157600080fd5b8135818111156145f3576145f3614b08565b8060051b604051601f19603f8301168101818110858211171561461857614618614b08565b604052828152858101935084860182860187018c101561463757600080fd5b600095505b8386101561465a57803585526001959095019493860193860161463c565b50979a979950505050604095909501359450505050565b6000806040838503121561468457600080fd5b50508035926020909101359150565b600080600080606085870312156146a957600080fd5b8435935060208501359250604085013567ffffffffffffffff8111156146ce57600080fd5b6146da878288016143fb565b95989497509550505050565b6000806000606084860312156146fb57600080fd5b505081359360208301359350604090920135919050565b6000806000806080858703121561472857600080fd5b8435935060208501359250604085013561474181614b2f565b9396929550929360600135925050565b6000806000806080858703121561476757600080fd5b84359350602085013561477981614b2f565b9250604085013561474181614b2f565b600080600080600060a086880312156147a157600080fd5b8535945060208601356147b381614b2f565b935060408601356147c381614b2f565b94979396509394606081013594506080013592915050565b6000602082840312156147ed57600080fd5b5051919050565b60006020828403121561480657600080fd5b8151610fb081614b2f565b600081518084526020808501945080840160005b8381101561484157815187529582019590820190600101614825565b509495945050505050565b6000825161485e818460208701614a95565b9190910192915050565b6020808252825182820181905260009190848201906040850190845b818110156148a057835183529284019291840191600101614884565b50909695505050505050565b6080815260006148bf6080830187614811565b82810360208401526148d18187614811565b604084019590955250506060015292915050565b6040815260006148f86040830185614811565b90508260208301529392505050565b6020815260008251806020840152614926816040850160208701614a95565b601f01601f19169190910160400192915050565b6000821982111561494d5761494d614adc565b500190565b60008261496f57634e487b7160e01b600052601260045260246000fd5b500490565b600181815b808511156149af57816000190482111561499557614995614adc565b808516156149a257918102915b93841c9390800290614979565b509250929050565b600061242583836000826149cd57506001612428565b816149da57506000612428565b81600181146149f057600281146149fa57614a16565b6001915050612428565b60ff841115614a0b57614a0b614adc565b50506001821b612428565b5060208310610133831016604e8410600b8410161715614a39575081810a612428565b614a438383614974565b8060001904821115614a5757614a57614adc565b029392505050565b6000816000190483118215151615614a7957614a79614adc565b500290565b600082821015614a9057614a90614adc565b500390565b60005b83811015614ab0578181015183820152602001614a98565b83811115612f3f5750506000910152565b6000600019821415614ad557614ad5614adc565b5060010190565b634e487b7160e01b600052601160045260246000fd5b634e487b7160e01b600052603260045260246000fd5b634e487b7160e01b600052604160045260246000fd5b8015158114614b2c57600080fd5b50565b60ff81168114614b2c57600080fdfe43616e6e6f74207769746864726177206d6f7265207468616e20617661696c61626c65a26469706673582212200928302f5b69a2cb1c531434137edb9988f6bed8afea36960ddc1de1e3843c1c64736f6c63430008070033",
  "linkReferences": {
    "contracts/stabledex/MathUtils.sol": {
      "MathUtils": [
        {
          "length": 20,
          "start": 2972
        },
        {
          "length": 20,
          "start": 5040
        },
        {
          "length": 20,
          "start": 12713
        },
        {
          "length": 20,
          "start": 16326
        },
        {
          "length": 20,
          "start": 16923
        }
      ]
    }
  },
  "deployedLinkReferences": {
    "contracts/stabledex/MathUtils.sol": {
      "MathUtils": [
        {
          "length": 20,
          "start": 2914
        },
        {
          "length": 20,
          "start": 4982
        },
        {
          "length": 20,
          "start": 12655
        },
        {
          "length": 20,
          "start": 16268
        },
        {
          "length": 20,
          "start": 16865
        }
      ]
    }
  }
}